{"abi":[{"type":"constructor","inputs":[{"name":"_implementation","type":"address","internalType":"address"},{"name":"_registry","type":"address","internalType":"address"}],"stateMutability":"nonpayable"},{"type":"function","name":"_REGISTRY","inputs":[],"outputs":[{"name":"","type":"address","internalType":"contract ProxyRegistry"}],"stateMutability":"view"},{"type":"function","name":"createProxy","inputs":[{"name":"_name","type":"string","internalType":"string"},{"name":"_symbol","type":"string","internalType":"string"},{"name":"_supply","type":"uint256","internalType":"uint256"},{"name":"_charityWallet","type":"address","internalType":"address"},{"name":"_owner","type":"address","internalType":"address"}],"outputs":[{"name":"","type":"address","internalType":"address"}],"stateMutability":"nonpayable"},{"type":"function","name":"implementation","inputs":[],"outputs":[{"name":"","type":"address","internalType":"address"}],"stateMutability":"view"},{"type":"function","name":"owner","inputs":[],"outputs":[{"name":"","type":"address","internalType":"address"}],"stateMutability":"view"},{"type":"function","name":"updateImplementation","inputs":[{"name":"_newImplementation","type":"address","internalType":"address"}],"outputs":[],"stateMutability":"nonpayable"}],"bytecode":{"object":"0x60a060405234801561000f575f80fd5b5060405161121d38038061121d83398181016040528101906100319190610149565b815f806101000a81548173ffffffffffffffffffffffffffffffffffffffff021916908373ffffffffffffffffffffffffffffffffffffffff1602179055508073ffffffffffffffffffffffffffffffffffffffff1660808173ffffffffffffffffffffffffffffffffffffffff16815250503360015f6101000a81548173ffffffffffffffffffffffffffffffffffffffff021916908373ffffffffffffffffffffffffffffffffffffffff1602179055505050610187565b5f80fd5b5f73ffffffffffffffffffffffffffffffffffffffff82169050919050565b5f610118826100ef565b9050919050565b6101288161010e565b8114610132575f80fd5b50565b5f815190506101438161011f565b92915050565b5f806040838503121561015f5761015e6100eb565b5b5f61016c85828601610135565b925050602061017d85828601610135565b9150509250929050565b6080516110776101a65f395f8181610215015261035501526110775ff3fe608060405234801562000010575f80fd5b50600436106200005c575f3560e01c8063025b22bc14620000605780635c60da1b14620000805780636c40dc2614620000a25780638da5cb5b14620000c4578063fce5e25814620000e6575b5f80fd5b6200007e60048036038101906200007891906200046b565b6200011c565b005b6200008a620001f0565b604051620000999190620004ac565b60405180910390f35b620000ac62000213565b604051620000bb91906200052e565b60405180910390f35b620000ce62000237565b604051620000dd9190620004ac565b60405180910390f35b620001046004803603810190620000fe9190620006d9565b6200025c565b604051620001139190620004ac565b60405180910390f35b60015f9054906101000a900473ffffffffffffffffffffffffffffffffffffffff1673ffffffffffffffffffffffffffffffffffffffff163373ffffffffffffffffffffffffffffffffffffffff1614620001ae576040517f08c379a0000000000000000000000000000000000000000000000000000000008152600401620001a590620007f9565b60405180910390fd5b805f806101000a81548173ffffffffffffffffffffffffffffffffffffffff021916908373ffffffffffffffffffffffffffffffffffffffff16021790555050565b5f8054906101000a900473ffffffffffffffffffffffffffffffffffffffff1681565b7f000000000000000000000000000000000000000000000000000000000000000081565b60015f9054906101000a900473ffffffffffffffffffffffffffffffffffffffff1681565b5f808686868686604051602401620002799594939291906200089e565b6040516020818303038152906040527f7e77c503000000000000000000000000000000000000000000000000000000007bffffffffffffffffffffffffffffffffffffffffffffffffffffffff19166020820180517bffffffffffffffffffffffffffffffffffffffffffffffffffffffff838183161783525050505090505f805f9054906101000a900473ffffffffffffffffffffffffffffffffffffffff16826040516200032990620003eb565b6200033692919062000961565b604051809103905ff08015801562000350573d5f803e3d5ffd5b5090507f000000000000000000000000000000000000000000000000000000000000000073ffffffffffffffffffffffffffffffffffffffff1663ab711c7e826040518263ffffffff1660e01b8152600401620003ae9190620004ac565b5f604051808303815f87803b158015620003c6575f80fd5b505af1158015620003d9573d5f803e3d5ffd5b50505050809250505095945050505050565b6106ae806200099483390190565b5f604051905090565b5f80fd5b5f80fd5b5f73ffffffffffffffffffffffffffffffffffffffff82169050919050565b5f62000435826200040a565b9050919050565b620004478162000429565b811462000452575f80fd5b50565b5f8135905062000465816200043c565b92915050565b5f6020828403121562000483576200048262000402565b5b5f620004928482850162000455565b91505092915050565b620004a68162000429565b82525050565b5f602082019050620004c15f8301846200049b565b92915050565b5f819050919050565b5f620004f0620004ea620004e4846200040a565b620004c7565b6200040a565b9050919050565b5f6200050382620004d0565b9050919050565b5f6200051682620004f7565b9050919050565b62000528816200050a565b82525050565b5f602082019050620005435f8301846200051d565b92915050565b5f80fd5b5f80fd5b5f601f19601f8301169050919050565b7f4e487b71000000000000000000000000000000000000000000000000000000005f52604160045260245ffd5b620005998262000551565b810181811067ffffffffffffffff82111715620005bb57620005ba62000561565b5b80604052505050565b5f620005cf620003f9565b9050620005dd82826200058e565b919050565b5f67ffffffffffffffff821115620005ff57620005fe62000561565b5b6200060a8262000551565b9050602081019050919050565b828183375f83830152505050565b5f6200063b6200063584620005e2565b620005c4565b9050828152602081018484840111156200065a57620006596200054d565b5b6200066784828562000617565b509392505050565b5f82601f83011262000686576200068562000549565b5b81356200069884826020860162000625565b91505092915050565b5f819050919050565b620006b581620006a1565b8114620006c0575f80fd5b50565b5f81359050620006d381620006aa565b92915050565b5f805f805f60a08688031215620006f557620006f462000402565b5b5f86013567ffffffffffffffff81111562000715576200071462000406565b5b62000723888289016200066f565b955050602086013567ffffffffffffffff81111562000747576200074662000406565b5b62000755888289016200066f565b94505060406200076888828901620006c3565b93505060606200077b8882890162000455565b92505060806200078e8882890162000455565b9150509295509295909350565b5f82825260208201905092915050565b7f554e415554484f52495a454400000000000000000000000000000000000000005f82015250565b5f620007e1600c836200079b565b9150620007ee82620007ab565b602082019050919050565b5f6020820190508181035f8301526200081281620007d3565b9050919050565b5f81519050919050565b5f5b838110156200084257808201518184015260208101905062000825565b5f8484015250505050565b5f620008598262000819565b6200086581856200079b565b93506200087781856020860162000823565b620008828162000551565b840191505092915050565b6200089881620006a1565b82525050565b5f60a0820190508181035f830152620008b881886200084d565b90508181036020830152620008ce81876200084d565b9050620008df60408301866200088d565b620008ee60608301856200049b565b620008fd60808301846200049b565b9695505050505050565b5f81519050919050565b5f82825260208201905092915050565b5f6200092d8262000907565b62000939818562000911565b93506200094b81856020860162000823565b620009568162000551565b840191505092915050565b5f604082019050620009765f8301856200049b565b81810360208301526200098a818462000921565b9050939250505056fe60806040526040516106ae3803806106ae833981810160405281019061002591906104f2565b610035828261003c60201b60201c565b50506105ce565b61004b826100c060201b60201c565b8173ffffffffffffffffffffffffffffffffffffffff167fbc7cd75a20ee27fd9adebab32041f755214dbc6bffa90cc0225b39da2e5c2d3b60405160405180910390a25f815111156100ad576100a7828261018f60201b60201c565b506100bc565b6100bb61021560201b60201c565b5b5050565b5f8173ffffffffffffffffffffffffffffffffffffffff163b0361011b57806040517f4c9c8ce3000000000000000000000000000000000000000000000000000000008152600401610112919061055b565b60405180910390fd5b8061014d7f360894a13ba1a3210667c828492db98dca3e2076cc3735a920a3ca505d382bbc5f1b61025160201b60201c565b5f015f6101000a81548173ffffffffffffffffffffffffffffffffffffffff021916908373ffffffffffffffffffffffffffffffffffffffff16021790555050565b60605f808473ffffffffffffffffffffffffffffffffffffffff16846040516101b891906105b8565b5f60405180830381855af49150503d805f81146101f0576040519150601f19603f3d011682016040523d82523d5f602084013e6101f5565b606091505b509150915061020b85838361025a60201b60201c565b9250505092915050565b5f34111561024f576040517fb398979f00000000000000000000000000000000000000000000000000000000815260040160405180910390fd5b565b5f819050919050565b60608261027557610270826102ed60201b60201c565b6102e5565b5f825114801561029b57505f8473ffffffffffffffffffffffffffffffffffffffff163b145b156102dd57836040517f9996b3150000000000000000000000000000000000000000000000000000000081526004016102d4919061055b565b60405180910390fd5b8190506102e6565b5b9392505050565b5f815111156102ff5780518082602001fd5b6040517f1425ea4200000000000000000000000000000000000000000000000000000000815260040160405180910390fd5b5f604051905090565b5f80fd5b5f80fd5b5f73ffffffffffffffffffffffffffffffffffffffff82169050919050565b5f61036b82610342565b9050919050565b61037b81610361565b8114610385575f80fd5b50565b5f8151905061039681610372565b92915050565b5f80fd5b5f80fd5b5f601f19601f8301169050919050565b7f4e487b71000000000000000000000000000000000000000000000000000000005f52604160045260245ffd5b6103ea826103a4565b810181811067ffffffffffffffff82111715610409576104086103b4565b5b80604052505050565b5f61041b610331565b905061042782826103e1565b919050565b5f67ffffffffffffffff821115610446576104456103b4565b5b61044f826103a4565b9050602081019050919050565b5f5b8381101561047957808201518184015260208101905061045e565b5f8484015250505050565b5f6104966104918461042c565b610412565b9050828152602081018484840111156104b2576104b16103a0565b5b6104bd84828561045c565b509392505050565b5f82601f8301126104d9576104d861039c565b5b81516104e9848260208601610484565b91505092915050565b5f80604083850312156105085761050761033a565b5b5f61051585828601610388565b925050602083015167ffffffffffffffff8111156105365761053561033e565b5b610542858286016104c5565b9150509250929050565b61055581610361565b82525050565b5f60208201905061056e5f83018461054c565b92915050565b5f81519050919050565b5f81905092915050565b5f61059282610574565b61059c818561057e565b93506105ac81856020860161045c565b80840191505092915050565b5f6105c38284610588565b915081905092915050565b60d4806105da5f395ff3fe6080604052600a600c565b005b60186014601a565b6026565b565b5f60216044565b905090565b365f80375f80365f845af43d5f803e805f81146040573d5ff35b3d5ffd5b5f606e7f360894a13ba1a3210667c828492db98dca3e2076cc3735a920a3ca505d382bbc5f1b6095565b5f015f9054906101000a900473ffffffffffffffffffffffffffffffffffffffff16905090565b5f81905091905056fea264697066735822122081ed427590f7ff4150b6667c0dc5dcd63f83042762e3f4d83b0c07993090495d64736f6c63430008140033a26469706673582212201f3b75c1a7387d6c92387cbfae7201f4d7014d715576309e40b6a9e7d3a9eb8264736f6c63430008140033","linkReferences":{}},"methodIdentifiers":{"_REGISTRY()":"6c40dc26","createProxy(string,string,uint256,address,address)":"fce5e258","implementation()":"5c60da1b","owner()":"8da5cb5b","updateImplementation(address)":"025b22bc"},"storageLayout":{"storage":[{"astId":51140,"contract":"src/Factory.sol:Factory","label":"implementation","offset":0,"slot":"0","type":"t_address"},{"astId":51142,"contract":"src/Factory.sol:Factory","label":"owner","offset":0,"slot":"1","type":"t_address"}],"types":{"t_address":{"encoding":"inplace","label":"address","numberOfBytes":"20"}}},"id":77}