{"abi":[{"type":"constructor","inputs":[{"name":"_implementation","type":"address","internalType":"address"},{"name":"_registry","type":"address","internalType":"address"}],"stateMutability":"nonpayable"},{"type":"function","name":"_REGISTRY","inputs":[],"outputs":[{"name":"","type":"address","internalType":"contract ProxyRegistry"}],"stateMutability":"view"},{"type":"function","name":"createProxy","inputs":[{"name":"_name","type":"string","internalType":"string"},{"name":"_symbol","type":"string","internalType":"string"},{"name":"_supply","type":"uint256","internalType":"uint256"},{"name":"_charityWallet","type":"address","internalType":"address"},{"name":"_owner","type":"address","internalType":"address"}],"outputs":[{"name":"","type":"address","internalType":"address"}],"stateMutability":"nonpayable"},{"type":"function","name":"implementation","inputs":[],"outputs":[{"name":"","type":"address","internalType":"address"}],"stateMutability":"view"},{"type":"function","name":"owner","inputs":[],"outputs":[{"name":"","type":"address","internalType":"address"}],"stateMutability":"view"},{"type":"function","name":"updateImplementation","inputs":[{"name":"_newImplementation","type":"address","internalType":"address"}],"outputs":[],"stateMutability":"nonpayable"}],"bytecode":{"object":"0x60a060405234801561000f575f5ffd5b506040516110df3803806110df83398181016040528101906100319190610149565b815f5f6101000a81548173ffffffffffffffffffffffffffffffffffffffff021916908373ffffffffffffffffffffffffffffffffffffffff1602179055508073ffffffffffffffffffffffffffffffffffffffff1660808173ffffffffffffffffffffffffffffffffffffffff16815250503360015f6101000a81548173ffffffffffffffffffffffffffffffffffffffff021916908373ffffffffffffffffffffffffffffffffffffffff1602179055505050610187565b5f5ffd5b5f73ffffffffffffffffffffffffffffffffffffffff82169050919050565b5f610118826100ef565b9050919050565b6101288161010e565b8114610132575f5ffd5b50565b5f815190506101438161011f565b92915050565b5f5f6040838503121561015f5761015e6100eb565b5b5f61016c85828601610135565b925050602061017d85828601610135565b9150509250929050565b608051610f396101a65f395f81816101f6015261032f0152610f395ff3fe608060405234801561000f575f5ffd5b5060043610610055575f3560e01c8063025b22bc146100595780635c60da1b146100755780636c40dc26146100935780638da5cb5b146100b1578063fce5e258146100cf575b5f5ffd5b610073600480360381019061006e9190610439565b6100ff565b005b61007d6101d0565b60405161008a9190610473565b60405180910390f35b61009b6101f4565b6040516100a891906104e7565b60405180910390f35b6100b9610218565b6040516100c69190610473565b60405180910390f35b6100e960048036038101906100e4919061066f565b61023d565b6040516100f69190610473565b60405180910390f35b60015f9054906101000a900473ffffffffffffffffffffffffffffffffffffffff1673ffffffffffffffffffffffffffffffffffffffff163373ffffffffffffffffffffffffffffffffffffffff161461018e576040517f08c379a000000000000000000000000000000000000000000000000000000000815260040161018590610778565b60405180910390fd5b805f5f6101000a81548173ffffffffffffffffffffffffffffffffffffffff021916908373ffffffffffffffffffffffffffffffffffffffff16021790555050565b5f5f9054906101000a900473ffffffffffffffffffffffffffffffffffffffff1681565b7f000000000000000000000000000000000000000000000000000000000000000081565b60015f9054906101000a900473ffffffffffffffffffffffffffffffffffffffff1681565b5f5f86868686866040516024016102589594939291906107f5565b6040516020818303038152906040527f7e77c503000000000000000000000000000000000000000000000000000000007bffffffffffffffffffffffffffffffffffffffffffffffffffffffff19166020820180517bffffffffffffffffffffffffffffffffffffffffffffffffffffffff838183161783525050505090505f5f5f9054906101000a900473ffffffffffffffffffffffffffffffffffffffff1682604051610306906103c1565b6103119291906108a6565b604051809103905ff08015801561032a573d5f5f3e3d5ffd5b5090507f000000000000000000000000000000000000000000000000000000000000000073ffffffffffffffffffffffffffffffffffffffff1663ab711c7e826040518263ffffffff1660e01b81526004016103869190610473565b5f604051808303815f87803b15801561039d575f5ffd5b505af11580156103af573d5f5f3e3d5ffd5b50505050809250505095945050505050565b61062f806108d583390190565b5f604051905090565b5f5ffd5b5f5ffd5b5f73ffffffffffffffffffffffffffffffffffffffff82169050919050565b5f610408826103df565b9050919050565b610418816103fe565b8114610422575f5ffd5b50565b5f813590506104338161040f565b92915050565b5f6020828403121561044e5761044d6103d7565b5b5f61045b84828501610425565b91505092915050565b61046d816103fe565b82525050565b5f6020820190506104865f830184610464565b92915050565b5f819050919050565b5f6104af6104aa6104a5846103df565b61048c565b6103df565b9050919050565b5f6104c082610495565b9050919050565b5f6104d1826104b6565b9050919050565b6104e1816104c7565b82525050565b5f6020820190506104fa5f8301846104d8565b92915050565b5f5ffd5b5f5ffd5b5f601f19601f8301169050919050565b7f4e487b71000000000000000000000000000000000000000000000000000000005f52604160045260245ffd5b61054e82610508565b810181811067ffffffffffffffff8211171561056d5761056c610518565b5b80604052505050565b5f61057f6103ce565b905061058b8282610545565b919050565b5f67ffffffffffffffff8211156105aa576105a9610518565b5b6105b382610508565b9050602081019050919050565b828183375f83830152505050565b5f6105e06105db84610590565b610576565b9050828152602081018484840111156105fc576105fb610504565b5b6106078482856105c0565b509392505050565b5f82601f83011261062357610622610500565b5b81356106338482602086016105ce565b91505092915050565b5f819050919050565b61064e8161063c565b8114610658575f5ffd5b50565b5f8135905061066981610645565b92915050565b5f5f5f5f5f60a08688031215610688576106876103d7565b5b5f86013567ffffffffffffffff8111156106a5576106a46103db565b5b6106b18882890161060f565b955050602086013567ffffffffffffffff8111156106d2576106d16103db565b5b6106de8882890161060f565b94505060406106ef8882890161065b565b935050606061070088828901610425565b925050608061071188828901610425565b9150509295509295909350565b5f82825260208201905092915050565b7f554e415554484f52495a454400000000000000000000000000000000000000005f82015250565b5f610762600c8361071e565b915061076d8261072e565b602082019050919050565b5f6020820190508181035f83015261078f81610756565b9050919050565b5f81519050919050565b8281835e5f83830152505050565b5f6107b882610796565b6107c2818561071e565b93506107d28185602086016107a0565b6107db81610508565b840191505092915050565b6107ef8161063c565b82525050565b5f60a0820190508181035f83015261080d81886107ae565b9050818103602083015261082181876107ae565b905061083060408301866107e6565b61083d6060830185610464565b61084a6080830184610464565b9695505050505050565b5f81519050919050565b5f82825260208201905092915050565b5f61087882610854565b610882818561085e565b93506108928185602086016107a0565b61089b81610508565b840191505092915050565b5f6040820190506108b95f830185610464565b81810360208301526108cb818461086e565b9050939250505056fe608060405260405161062f38038061062f833981810160405281019061002591906104cd565b610035828261003c60201b60201c565b505061054f565b61004b826100c060201b60201c565b8173ffffffffffffffffffffffffffffffffffffffff167fbc7cd75a20ee27fd9adebab32041f755214dbc6bffa90cc0225b39da2e5c2d3b60405160405180910390a25f815111156100ad576100a7828261018f60201b60201c565b506100bc565b6100bb61029e60201b60201c565b5b5050565b5f8173ffffffffffffffffffffffffffffffffffffffff163b0361011b57806040517f4c9c8ce30000000000000000000000000000000000000000000000000000000081526004016101129190610536565b60405180910390fd5b8061014d7f360894a13ba1a3210667c828492db98dca3e2076cc3735a920a3ca505d382bbc5f1b6102da60201b60201c565b5f015f6101000a81548173ffffffffffffffffffffffffffffffffffffffff021916908373ffffffffffffffffffffffffffffffffffffffff16021790555050565b60605f6101a284846102e360201b60201c565b90508080156101de57505f6101bb6102f760201b60201c565b11806101dd57505f8473ffffffffffffffffffffffffffffffffffffffff163b115b5b156101f9576101f16102fe60201b60201c565b915050610298565b801561023c57836040517f9996b3150000000000000000000000000000000000000000000000000000000081526004016102339190610536565b60405180910390fd5b5f61024b6102f760201b60201c565b11156102645761025f61031b60201b60201c565b610296565b6040517fd6bda27500000000000000000000000000000000000000000000000000000000815260040160405180910390fd5b505b92915050565b5f3411156102d8576040517fb398979f00000000000000000000000000000000000000000000000000000000815260040160405180910390fd5b565b5f819050919050565b5f5f5f835160208501865af4905092915050565b5f3d905090565b606060405190503d81523d5f602083013e3d602001810160405290565b6040513d5f823e3d81fd5b5f604051905090565b5f5ffd5b5f5ffd5b5f73ffffffffffffffffffffffffffffffffffffffff82169050919050565b5f61036082610337565b9050919050565b61037081610356565b811461037a575f5ffd5b50565b5f8151905061038b81610367565b92915050565b5f5ffd5b5f5ffd5b5f601f19601f8301169050919050565b7f4e487b71000000000000000000000000000000000000000000000000000000005f52604160045260245ffd5b6103df82610399565b810181811067ffffffffffffffff821117156103fe576103fd6103a9565b5b80604052505050565b5f610410610326565b905061041c82826103d6565b919050565b5f67ffffffffffffffff82111561043b5761043a6103a9565b5b61044482610399565b9050602081019050919050565b8281835e5f83830152505050565b5f61047161046c84610421565b610407565b90508281526020810184848401111561048d5761048c610395565b5b610498848285610451565b509392505050565b5f82601f8301126104b4576104b3610391565b5b81516104c484826020860161045f565b91505092915050565b5f5f604083850312156104e3576104e261032f565b5b5f6104f08582860161037d565b925050602083015167ffffffffffffffff81111561051157610510610333565b5b61051d858286016104a0565b9150509250929050565b61053081610356565b82525050565b5f6020820190506105495f830184610527565b92915050565b60d48061055b5f395ff3fe6080604052600a600c565b005b60186014601a565b6026565b565b5f60216044565b905090565b365f5f375f5f365f845af43d5f5f3e805f81146040573d5ff35b3d5ffd5b5f606e7f360894a13ba1a3210667c828492db98dca3e2076cc3735a920a3ca505d382bbc5f1b6095565b5f015f9054906101000a900473ffffffffffffffffffffffffffffffffffffffff16905090565b5f81905091905056fea26469706673582212206d35b88586d713d1af83d55c4d07f161efe38e76d75eb45edf7c7ccc45a5d29f64736f6c634300081e0033a26469706673582212201267495d9a65657231d58457a00d74361af62bb2d916fb258d4180df6a5c319064736f6c634300081e0033","linkReferences":{}},"methodIdentifiers":{"_REGISTRY()":"6c40dc26","createProxy(string,string,uint256,address,address)":"fce5e258","implementation()":"5c60da1b","owner()":"8da5cb5b","updateImplementation(address)":"025b22bc"},"storageLayout":{"storage":[{"astId":56327,"contract":"src/Factory.sol:Factory","label":"implementation","offset":0,"slot":"0","type":"t_address"},{"astId":56329,"contract":"src/Factory.sol:Factory","label":"owner","offset":0,"slot":"1","type":"t_address"}],"types":{"t_address":{"encoding":"inplace","label":"address","numberOfBytes":"20"}}},"id":87}